{
  "_format": "hh-sol-artifact-1",
  "contractName": "MedicalRecord",
  "sourceName": "contracts/MedicalRecord.sol",
  "abi": [
    {
      "inputs": [],
      "stateMutability": "nonpayable",
      "type": "constructor"
    },
    {
      "anonymous": false,
      "inputs": [
        {
          "indexed": true,
          "internalType": "address",
          "name": "owner",
          "type": "address"
        },
        {
          "indexed": true,
          "internalType": "address",
          "name": "approved",
          "type": "address"
        },
        {
          "indexed": true,
          "internalType": "uint256",
          "name": "tokenId",
          "type": "uint256"
        }
      ],
      "name": "Approval",
      "type": "event"
    },
    {
      "anonymous": false,
      "inputs": [
        {
          "indexed": true,
          "internalType": "address",
          "name": "owner",
          "type": "address"
        },
        {
          "indexed": true,
          "internalType": "address",
          "name": "operator",
          "type": "address"
        },
        {
          "indexed": false,
          "internalType": "bool",
          "name": "approved",
          "type": "bool"
        }
      ],
      "name": "ApprovalForAll",
      "type": "event"
    },
    {
      "anonymous": false,
      "inputs": [
        {
          "indexed": true,
          "internalType": "address",
          "name": "previousOwner",
          "type": "address"
        },
        {
          "indexed": true,
          "internalType": "address",
          "name": "newOwner",
          "type": "address"
        }
      ],
      "name": "OwnershipTransferred",
      "type": "event"
    },
    {
      "anonymous": false,
      "inputs": [
        {
          "indexed": false,
          "internalType": "address",
          "name": "account",
          "type": "address"
        }
      ],
      "name": "Paused",
      "type": "event"
    },
    {
      "anonymous": false,
      "inputs": [
        {
          "indexed": true,
          "internalType": "address",
          "name": "from",
          "type": "address"
        },
        {
          "indexed": true,
          "internalType": "address",
          "name": "to",
          "type": "address"
        },
        {
          "indexed": true,
          "internalType": "uint256",
          "name": "tokenId",
          "type": "uint256"
        }
      ],
      "name": "Transfer",
      "type": "event"
    },
    {
      "anonymous": false,
      "inputs": [
        {
          "indexed": false,
          "internalType": "address",
          "name": "account",
          "type": "address"
        }
      ],
      "name": "Unpaused",
      "type": "event"
    },
    {
      "inputs": [
        {
          "internalType": "address",
          "name": "to",
          "type": "address"
        },
        {
          "internalType": "uint256",
          "name": "tokenId",
          "type": "uint256"
        }
      ],
      "name": "approve",
      "outputs": [],
      "stateMutability": "nonpayable",
      "type": "function"
    },
    {
      "inputs": [
        {
          "internalType": "address",
          "name": "owner",
          "type": "address"
        }
      ],
      "name": "balanceOf",
      "outputs": [
        {
          "internalType": "uint256",
          "name": "",
          "type": "uint256"
        }
      ],
      "stateMutability": "view",
      "type": "function"
    },
    {
      "inputs": [
        {
          "internalType": "uint256",
          "name": "tokenId",
          "type": "uint256"
        }
      ],
      "name": "getApproved",
      "outputs": [
        {
          "internalType": "address",
          "name": "",
          "type": "address"
        }
      ],
      "stateMutability": "view",
      "type": "function"
    },
    {
      "inputs": [
        {
          "internalType": "uint256",
          "name": "tokenId",
          "type": "uint256"
        },
        {
          "internalType": "string",
          "name": "base64SVGString",
          "type": "string"
        },
        {
          "internalType": "string",
          "name": "_url",
          "type": "string"
        }
      ],
      "name": "getTokenURI",
      "outputs": [
        {
          "internalType": "string",
          "name": "",
          "type": "string"
        }
      ],
      "stateMutability": "pure",
      "type": "function"
    },
    {
      "inputs": [
        {
          "internalType": "address",
          "name": "owner",
          "type": "address"
        },
        {
          "internalType": "address",
          "name": "operator",
          "type": "address"
        }
      ],
      "name": "isApprovedForAll",
      "outputs": [
        {
          "internalType": "bool",
          "name": "",
          "type": "bool"
        }
      ],
      "stateMutability": "view",
      "type": "function"
    },
    {
      "inputs": [
        {
          "internalType": "address",
          "name": "_toAddr",
          "type": "address"
        },
        {
          "internalType": "string",
          "name": "_base64SVGString",
          "type": "string"
        },
        {
          "internalType": "string",
          "name": "_email",
          "type": "string"
        },
        {
          "internalType": "string",
          "name": "_url",
          "type": "string"
        }
      ],
      "name": "mint",
      "outputs": [],
      "stateMutability": "nonpayable",
      "type": "function"
    },
    {
      "inputs": [],
      "name": "name",
      "outputs": [
        {
          "internalType": "string",
          "name": "",
          "type": "string"
        }
      ],
      "stateMutability": "view",
      "type": "function"
    },
    {
      "inputs": [],
      "name": "owner",
      "outputs": [
        {
          "internalType": "address",
          "name": "",
          "type": "address"
        }
      ],
      "stateMutability": "view",
      "type": "function"
    },
    {
      "inputs": [
        {
          "internalType": "uint256",
          "name": "tokenId",
          "type": "uint256"
        }
      ],
      "name": "ownerOf",
      "outputs": [
        {
          "internalType": "address",
          "name": "",
          "type": "address"
        }
      ],
      "stateMutability": "view",
      "type": "function"
    },
    {
      "inputs": [],
      "name": "pause",
      "outputs": [],
      "stateMutability": "nonpayable",
      "type": "function"
    },
    {
      "inputs": [],
      "name": "paused",
      "outputs": [
        {
          "internalType": "bool",
          "name": "",
          "type": "bool"
        }
      ],
      "stateMutability": "view",
      "type": "function"
    },
    {
      "inputs": [],
      "name": "renounceOwnership",
      "outputs": [],
      "stateMutability": "nonpayable",
      "type": "function"
    },
    {
      "inputs": [
        {
          "internalType": "address",
          "name": "from",
          "type": "address"
        },
        {
          "internalType": "address",
          "name": "to",
          "type": "address"
        },
        {
          "internalType": "uint256",
          "name": "tokenId",
          "type": "uint256"
        }
      ],
      "name": "safeTransferFrom",
      "outputs": [],
      "stateMutability": "nonpayable",
      "type": "function"
    },
    {
      "inputs": [
        {
          "internalType": "address",
          "name": "from",
          "type": "address"
        },
        {
          "internalType": "address",
          "name": "to",
          "type": "address"
        },
        {
          "internalType": "uint256",
          "name": "tokenId",
          "type": "uint256"
        },
        {
          "internalType": "bytes",
          "name": "data",
          "type": "bytes"
        }
      ],
      "name": "safeTransferFrom",
      "outputs": [],
      "stateMutability": "nonpayable",
      "type": "function"
    },
    {
      "inputs": [
        {
          "internalType": "address",
          "name": "operator",
          "type": "address"
        },
        {
          "internalType": "bool",
          "name": "approved",
          "type": "bool"
        }
      ],
      "name": "setApprovalForAll",
      "outputs": [],
      "stateMutability": "nonpayable",
      "type": "function"
    },
    {
      "inputs": [
        {
          "internalType": "bytes4",
          "name": "interfaceId",
          "type": "bytes4"
        }
      ],
      "name": "supportsInterface",
      "outputs": [
        {
          "internalType": "bool",
          "name": "",
          "type": "bool"
        }
      ],
      "stateMutability": "view",
      "type": "function"
    },
    {
      "inputs": [],
      "name": "symbol",
      "outputs": [
        {
          "internalType": "string",
          "name": "",
          "type": "string"
        }
      ],
      "stateMutability": "view",
      "type": "function"
    },
    {
      "inputs": [
        {
          "internalType": "uint256",
          "name": "tokenId",
          "type": "uint256"
        }
      ],
      "name": "tokenURI",
      "outputs": [
        {
          "internalType": "string",
          "name": "",
          "type": "string"
        }
      ],
      "stateMutability": "view",
      "type": "function"
    },
    {
      "inputs": [
        {
          "internalType": "address",
          "name": "from",
          "type": "address"
        },
        {
          "internalType": "address",
          "name": "to",
          "type": "address"
        },
        {
          "internalType": "uint256",
          "name": "tokenId",
          "type": "uint256"
        }
      ],
      "name": "transferFrom",
      "outputs": [],
      "stateMutability": "nonpayable",
      "type": "function"
    },
    {
      "inputs": [
        {
          "internalType": "address",
          "name": "newOwner",
          "type": "address"
        }
      ],
      "name": "transferOwnership",
      "outputs": [],
      "stateMutability": "nonpayable",
      "type": "function"
    },
    {
      "inputs": [],
      "name": "unpause",
      "outputs": [],
      "stateMutability": "nonpayable",
      "type": "function"
    },
    {
      "inputs": [
        {
          "internalType": "address",
          "name": "_toAddr",
          "type": "address"
        },
        {
          "internalType": "uint256",
          "name": "_tokenId",
          "type": "uint256"
        },
        {
          "internalType": "string",
          "name": "_base64SVGString",
          "type": "string"
        },
        {
          "internalType": "string",
          "name": "_url",
          "type": "string"
        }
      ],
      "name": "updateQr",
      "outputs": [
        {
          "internalType": "bool",
          "name": "",
          "type": "bool"
        }
      ],
      "stateMutability": "nonpayable",
      "type": "function"
    }
  ],
  "bytecode": "0x60806040523480156200001157600080fd5b506040518060400160405280600e81526020017f4d65646963616c205265636f72640000000000000000000000000000000000008152506040518060400160405280600681526020017f4d45445245430000000000000000000000000000000000000000000000000000815250816000908051906020019062000096929190620001c1565b508060019080519060200190620000af929190620001c1565b5050506000600760006101000a81548160ff021916908315150217905550620000ed620000e1620000f360201b60201c565b620000fb60201b60201c565b620002d6565b600033905090565b6000600760019054906101000a900473ffffffffffffffffffffffffffffffffffffffff16905081600760016101000a81548173ffffffffffffffffffffffffffffffffffffffff021916908373ffffffffffffffffffffffffffffffffffffffff1602179055508173ffffffffffffffffffffffffffffffffffffffff168173ffffffffffffffffffffffffffffffffffffffff167f8be0079c531659141344cd1fd0a4f28419497f9722a3daafe3b4186f6b6457e060405160405180910390a35050565b828054620001cf90620002a0565b90600052602060002090601f016020900481019282620001f357600085556200023f565b82601f106200020e57805160ff19168380011785556200023f565b828001600101855582156200023f579182015b828111156200023e57825182559160200191906001019062000221565b5b5090506200024e919062000252565b5090565b5b808211156200026d57600081600090555060010162000253565b5090565b7f4e487b7100000000000000000000000000000000000000000000000000000000600052602260045260246000fd5b60006002820490506001821680620002b957607f821691505b60208210811415620002d057620002cf62000271565b5b50919050565b613b6180620002e66000396000f3fe608060405234801561001057600080fd5b50600436106101425760003560e01c8063715018a6116100b8578063a22cb4651161007c578063a22cb4651461033d578063b88d4fde14610359578063c87b56dd14610375578063d7124cfb146103a5578063e985e9c5146103d5578063f2fde38b1461040557610142565b8063715018a6146102bd5780638456cb59146102c75780638da5cb5b146102d157806395d89b41146102ef578063a11f86831461030d57610142565b80633f4ba83a1161010a5780633f4ba83a146101fd57806342842e0e146102075780634a0706be146102235780635c975abb1461023f5780636352211e1461025d57806370a082311461028d57610142565b806301ffc9a71461014757806306fdde0314610177578063081812fc14610195578063095ea7b3146101c557806323b872dd146101e1575b600080fd5b610161600480360381019061015c9190612288565b610421565b60405161016e91906122d0565b60405180910390f35b61017f610503565b60405161018c9190612384565b60405180910390f35b6101af60048036038101906101aa91906123dc565b610595565b6040516101bc919061244a565b60405180910390f35b6101df60048036038101906101da9190612491565b6105db565b005b6101fb60048036038101906101f691906124d1565b6106f3565b005b610205610753565b005b610221600480360381019061021c91906124d1565b610765565b005b61023d60048036038101906102389190612659565b610785565b005b6102476109f8565b60405161025491906122d0565b60405180910390f35b610277600480360381019061027291906123dc565b610a0f565b604051610284919061244a565b60405180910390f35b6102a760048036038101906102a29190612714565b610ac1565b6040516102b49190612750565b60405180910390f35b6102c5610b79565b005b6102cf610b8d565b005b6102d9610b9f565b6040516102e6919061244a565b60405180910390f35b6102f7610bc9565b6040516103049190612384565b60405180910390f35b6103276004803603810190610322919061276b565b610c5b565b6040516103349190612384565b60405180910390f35b61035760048036038101906103529190612822565b610cbf565b005b610373600480360381019061036e9190612903565b610cd5565b005b61038f600480360381019061038a91906123dc565b610d37565b60405161039c9190612384565b60405180910390f35b6103bf60048036038101906103ba9190612986565b610e4a565b6040516103cc91906122d0565b60405180910390f35b6103ef60048036038101906103ea9190612a25565b610f2a565b6040516103fc91906122d0565b60405180910390f35b61041f600480360381019061041a9190612714565b610fbe565b005b60007f80ac58cd000000000000000000000000000000000000000000000000000000007bffffffffffffffffffffffffffffffffffffffffffffffffffffffff1916827bffffffffffffffffffffffffffffffffffffffffffffffffffffffff191614806104ec57507f5b5e139f000000000000000000000000000000000000000000000000000000007bffffffffffffffffffffffffffffffffffffffffffffffffffffffff1916827bffffffffffffffffffffffffffffffffffffffffffffffffffffffff1916145b806104fc57506104fb82611042565b5b9050919050565b60606000805461051290612a94565b80601f016020809104026020016040519081016040528092919081815260200182805461053e90612a94565b801561058b5780601f106105605761010080835404028352916020019161058b565b820191906000526020600020905b81548152906001019060200180831161056e57829003601f168201915b5050505050905090565b60006105a0826110ac565b6004600083815260200190815260200160002060009054906101000a900473ffffffffffffffffffffffffffffffffffffffff169050919050565b60006105e682610a0f565b90508073ffffffffffffffffffffffffffffffffffffffff168373ffffffffffffffffffffffffffffffffffffffff161415610657576040517f08c379a000000000000000000000000000000000000000000000000000000000815260040161064e90612b38565b60405180910390fd5b8073ffffffffffffffffffffffffffffffffffffffff166106766110f7565b73ffffffffffffffffffffffffffffffffffffffff1614806106a557506106a48161069f6110f7565b610f2a565b5b6106e4576040517f08c379a00000000000000000000000000000000000000000000000000000000081526004016106db90612bca565b60405180910390fd5b6106ee83836110ff565b505050565b6107046106fe6110f7565b826111b8565b610743576040517f08c379a000000000000000000000000000000000000000000000000000000000815260040161073a90612c5c565b60405180910390fd5b61074e83838361124d565b505050565b61075b6114b4565b610763611532565b565b61078083838360405180602001604052806000815250610cd5565b505050565b61078d6114b4565b60008351141580156107a157506000825114155b6107e0576040517f08c379a00000000000000000000000000000000000000000000000000000000081526004016107d790612cc8565b60405180910390fd5b60405180606001604052808573ffffffffffffffffffffffffffffffffffffffff16815260200183815260200160011515815250600960008673ffffffffffffffffffffffffffffffffffffffff1673ffffffffffffffffffffffffffffffffffffffff16815260200190815260200160002060008201518160000160006101000a81548173ffffffffffffffffffffffffffffffffffffffff021916908373ffffffffffffffffffffffffffffffffffffffff16021790555060208201518160010190805190602001906108b6929190612179565b5060408201518160020160006101000a81548160ff021916908315150217905550905050600960008573ffffffffffffffffffffffffffffffffffffffff1673ffffffffffffffffffffffffffffffffffffffff16815260200190815260200160002060020160009054906101000a900460ff16610969576040517f08c379a000000000000000000000000000000000000000000000000000000000815260040161096090612d5a565b60405180910390fd5b60006109756008611595565b905061098185826115a3565b84600a600083815260200190815260200160002060006101000a81548173ffffffffffffffffffffffffffffffffffffffff021916908373ffffffffffffffffffffffffffffffffffffffff1602179055506109e7816109e2838786610c5b565b6115c1565b6109f16008611635565b5050505050565b6000600760009054906101000a900460ff16905090565b6000806002600084815260200190815260200160002060009054906101000a900473ffffffffffffffffffffffffffffffffffffffff169050600073ffffffffffffffffffffffffffffffffffffffff168173ffffffffffffffffffffffffffffffffffffffff161415610ab8576040517f08c379a0000000000000000000000000000000000000000000000000000000008152600401610aaf90612dc6565b60405180910390fd5b80915050919050565b60008073ffffffffffffffffffffffffffffffffffffffff168273ffffffffffffffffffffffffffffffffffffffff161415610b32576040517f08c379a0000000000000000000000000000000000000000000000000000000008152600401610b2990612e58565b60405180910390fd5b600360008373ffffffffffffffffffffffffffffffffffffffff1673ffffffffffffffffffffffffffffffffffffffff168152602001908152602001600020549050919050565b610b816114b4565b610b8b600061164b565b565b610b956114b4565b610b9d611711565b565b6000600760019054906101000a900473ffffffffffffffffffffffffffffffffffffffff16905090565b606060018054610bd890612a94565b80601f0160208091040260200160405190810160405280929190818152602001828054610c0490612a94565b8015610c515780601f10610c2657610100808354040283529160200191610c51565b820191906000526020600020905b815481529060010190602001808311610c3457829003601f168201915b5050505050905090565b60606000610c6885611774565b8385604051602001610c7c939291906130a2565b6040516020818303038152906040529050610c96816118d5565b604051602001610ca6919061316c565b6040516020818303038152906040529150509392505050565b610cd1610cca6110f7565b8383611a39565b5050565b610ce6610ce06110f7565b836111b8565b610d25576040517f08c379a0000000000000000000000000000000000000000000000000000000008152600401610d1c90612c5c565b60405180910390fd5b610d3184848484611ba6565b50505050565b6060610d42826110ac565b6000600660008481526020019081526020016000208054610d6290612a94565b80601f0160208091040260200160405190810160405280929190818152602001828054610d8e90612a94565b8015610ddb5780601f10610db057610100808354040283529160200191610ddb565b820191906000526020600020905b815481529060010190602001808311610dbe57829003601f168201915b505050505090506000610dec611c02565b9050600081511415610e02578192505050610e45565b600082511115610e37578082604051602001610e1f92919061318e565b60405160208183030381529060405292505050610e45565b610e4084611c19565b925050505b919050565b6000610e5584611c81565b610e94576040517f08c379a0000000000000000000000000000000000000000000000000000000008152600401610e8b906131fe565b60405180910390fd5b8473ffffffffffffffffffffffffffffffffffffffff16610eb485610a0f565b73ffffffffffffffffffffffffffffffffffffffff1614610f0a576040517f08c379a0000000000000000000000000000000000000000000000000000000008152600401610f019061326a565b60405180910390fd5b610f1e84610f19868686610c5b565b6115c1565b60019050949350505050565b6000600560008473ffffffffffffffffffffffffffffffffffffffff1673ffffffffffffffffffffffffffffffffffffffff16815260200190815260200160002060008373ffffffffffffffffffffffffffffffffffffffff1673ffffffffffffffffffffffffffffffffffffffff16815260200190815260200160002060009054906101000a900460ff16905092915050565b610fc66114b4565b600073ffffffffffffffffffffffffffffffffffffffff168173ffffffffffffffffffffffffffffffffffffffff161415611036576040517f08c379a000000000000000000000000000000000000000000000000000000000815260040161102d906132fc565b60405180910390fd5b61103f8161164b565b50565b60007f01ffc9a7000000000000000000000000000000000000000000000000000000007bffffffffffffffffffffffffffffffffffffffffffffffffffffffff1916827bffffffffffffffffffffffffffffffffffffffffffffffffffffffff1916149050919050565b6110b581611c81565b6110f4576040517f08c379a00000000000000000000000000000000000000000000000000000000081526004016110eb90612dc6565b60405180910390fd5b50565b600033905090565b816004600083815260200190815260200160002060006101000a81548173ffffffffffffffffffffffffffffffffffffffff021916908373ffffffffffffffffffffffffffffffffffffffff160217905550808273ffffffffffffffffffffffffffffffffffffffff1661117283610a0f565b73ffffffffffffffffffffffffffffffffffffffff167f8c5be1e5ebec7d5bd14f71427d1e84f3dd0314c0f7b2291e5b200ac8c7c3b92560405160405180910390a45050565b6000806111c483610a0f565b90508073ffffffffffffffffffffffffffffffffffffffff168473ffffffffffffffffffffffffffffffffffffffff16148061120657506112058185610f2a565b5b8061124457508373ffffffffffffffffffffffffffffffffffffffff1661122c84610595565b73ffffffffffffffffffffffffffffffffffffffff16145b91505092915050565b8273ffffffffffffffffffffffffffffffffffffffff1661126d82610a0f565b73ffffffffffffffffffffffffffffffffffffffff16146112c3576040517f08c379a00000000000000000000000000000000000000000000000000000000081526004016112ba9061338e565b60405180910390fd5b600073ffffffffffffffffffffffffffffffffffffffff168273ffffffffffffffffffffffffffffffffffffffff161415611333576040517f08c379a000000000000000000000000000000000000000000000000000000000815260040161132a90613420565b60405180910390fd5b61133e838383611ced565b6113496000826110ff565b6001600360008573ffffffffffffffffffffffffffffffffffffffff1673ffffffffffffffffffffffffffffffffffffffff1681526020019081526020016000206000828254611399919061346f565b925050819055506001600360008473ffffffffffffffffffffffffffffffffffffffff1673ffffffffffffffffffffffffffffffffffffffff16815260200190815260200160002060008282546113f091906134a3565b92505081905550816002600083815260200190815260200160002060006101000a81548173ffffffffffffffffffffffffffffffffffffffff021916908373ffffffffffffffffffffffffffffffffffffffff160217905550808273ffffffffffffffffffffffffffffffffffffffff168473ffffffffffffffffffffffffffffffffffffffff167fddf252ad1be2c89b69c2b068fc378daa952ba7f163c4a11628f55a4df523b3ef60405160405180910390a46114af838383611cf2565b505050565b6114bc6110f7565b73ffffffffffffffffffffffffffffffffffffffff166114da610b9f565b73ffffffffffffffffffffffffffffffffffffffff1614611530576040517f08c379a000000000000000000000000000000000000000000000000000000000815260040161152790613545565b60405180910390fd5b565b61153a611cf7565b6000600760006101000a81548160ff0219169083151502179055507f5db9ee0a495bf2e6ff9c91a7834c1ba4fdd244a5e8aa4e537bd38aeae4b073aa61157e6110f7565b60405161158b919061244a565b60405180910390a1565b600081600001549050919050565b6115bd828260405180602001604052806000815250611d40565b5050565b6115ca82611c81565b611609576040517f08c379a0000000000000000000000000000000000000000000000000000000008152600401611600906135d7565b60405180910390fd5b80600660008481526020019081526020016000209080519060200190611630929190612179565b505050565b6001816000016000828254019250508190555050565b6000600760019054906101000a900473ffffffffffffffffffffffffffffffffffffffff16905081600760016101000a81548173ffffffffffffffffffffffffffffffffffffffff021916908373ffffffffffffffffffffffffffffffffffffffff1602179055508173ffffffffffffffffffffffffffffffffffffffff168173ffffffffffffffffffffffffffffffffffffffff167f8be0079c531659141344cd1fd0a4f28419497f9722a3daafe3b4186f6b6457e060405160405180910390a35050565b611719611d9b565b6001600760006101000a81548160ff0219169083151502179055507f62e78cea01bee320cd4e420270b5ea74000d11b0c9f74754ebdbfc544b05a25861175d6110f7565b60405161176a919061244a565b60405180910390a1565b606060008214156117bc576040518060400160405280600181526020017f300000000000000000000000000000000000000000000000000000000000000081525090506118d0565b600082905060005b600082146117ee5780806117d7906135f7565b915050600a826117e7919061366f565b91506117c4565b60008167ffffffffffffffff81111561180a5761180961252e565b5b6040519080825280601f01601f19166020018201604052801561183c5781602001600182028036833780820191505090505b5090505b600085146118c957600182611855919061346f565b9150600a8561186491906136a0565b603061187091906134a3565b60f81b818381518110611886576118856136d1565b5b60200101907effffffffffffffffffffffffffffffffffffffffffffffffffffffffffffff1916908160001a905350600a856118c2919061366f565b9450611840565b8093505050505b919050565b60606000825114156118f857604051806020016040528060008152509050611a34565b6000604051806060016040528060408152602001613aec604091399050600060036002855161192791906134a3565b611931919061366f565b600461193d9190613700565b67ffffffffffffffff8111156119565761195561252e565b5b6040519080825280601f01601f1916602001820160405280156119885781602001600182028036833780820191505090505b509050600182016020820185865187015b808210156119f4576003820191508151603f8160121c168501518453600184019350603f81600c1c168501518453600184019350603f8160061c168501518453600184019350603f8116850151845360018401935050611999565b5050600386510660018114611a105760028114611a2357611a2b565b603d6001830353603d6002830353611a2b565b603d60018303535b50505080925050505b919050565b8173ffffffffffffffffffffffffffffffffffffffff168373ffffffffffffffffffffffffffffffffffffffff161415611aa8576040517f08c379a0000000000000000000000000000000000000000000000000000000008152600401611a9f906137a6565b60405180910390fd5b80600560008573ffffffffffffffffffffffffffffffffffffffff1673ffffffffffffffffffffffffffffffffffffffff16815260200190815260200160002060008473ffffffffffffffffffffffffffffffffffffffff1673ffffffffffffffffffffffffffffffffffffffff16815260200190815260200160002060006101000a81548160ff0219169083151502179055508173ffffffffffffffffffffffffffffffffffffffff168373ffffffffffffffffffffffffffffffffffffffff167f17307eab39ab6107e8899845ad3d59bd9653f200f220920489ca2b5937696c3183604051611b9991906122d0565b60405180910390a3505050565b611bb184848461124d565b611bbd84848484611de5565b611bfc576040517f08c379a0000000000000000000000000000000000000000000000000000000008152600401611bf390613838565b60405180910390fd5b50505050565b606060405180602001604052806000815250905090565b6060611c24826110ac565b6000611c2e611c02565b90506000815111611c4e5760405180602001604052806000815250611c79565b80611c5884611774565b604051602001611c6992919061318e565b6040516020818303038152906040525b915050919050565b60008073ffffffffffffffffffffffffffffffffffffffff166002600084815260200190815260200160002060009054906101000a900473ffffffffffffffffffffffffffffffffffffffff1673ffffffffffffffffffffffffffffffffffffffff1614159050919050565b505050565b505050565b611cff6109f8565b611d3e576040517f08c379a0000000000000000000000000000000000000000000000000000000008152600401611d35906138a4565b60405180910390fd5b565b611d4a8383611f7c565b611d576000848484611de5565b611d96576040517f08c379a0000000000000000000000000000000000000000000000000000000008152600401611d8d90613838565b60405180910390fd5b505050565b611da36109f8565b15611de3576040517f08c379a0000000000000000000000000000000000000000000000000000000008152600401611dda90613910565b60405180910390fd5b565b6000611e068473ffffffffffffffffffffffffffffffffffffffff16612156565b15611f6f578373ffffffffffffffffffffffffffffffffffffffff1663150b7a02611e2f6110f7565b8786866040518563ffffffff1660e01b8152600401611e519493929190613985565b602060405180830381600087803b158015611e6b57600080fd5b505af1925050508015611e9c57506040513d601f19601f82011682018060405250810190611e9991906139e6565b60015b611f1f573d8060008114611ecc576040519150601f19603f3d011682016040523d82523d6000602084013e611ed1565b606091505b50600081511415611f17576040517f08c379a0000000000000000000000000000000000000000000000000000000008152600401611f0e90613838565b60405180910390fd5b805181602001fd5b63150b7a0260e01b7bffffffffffffffffffffffffffffffffffffffffffffffffffffffff1916817bffffffffffffffffffffffffffffffffffffffffffffffffffffffff191614915050611f74565b600190505b949350505050565b600073ffffffffffffffffffffffffffffffffffffffff168273ffffffffffffffffffffffffffffffffffffffff161415611fec576040517f08c379a0000000000000000000000000000000000000000000000000000000008152600401611fe390613a5f565b60405180910390fd5b611ff581611c81565b15612035576040517f08c379a000000000000000000000000000000000000000000000000000000000815260040161202c90613acb565b60405180910390fd5b61204160008383611ced565b6001600360008473ffffffffffffffffffffffffffffffffffffffff1673ffffffffffffffffffffffffffffffffffffffff168152602001908152602001600020600082825461209191906134a3565b92505081905550816002600083815260200190815260200160002060006101000a81548173ffffffffffffffffffffffffffffffffffffffff021916908373ffffffffffffffffffffffffffffffffffffffff160217905550808273ffffffffffffffffffffffffffffffffffffffff16600073ffffffffffffffffffffffffffffffffffffffff167fddf252ad1be2c89b69c2b068fc378daa952ba7f163c4a11628f55a4df523b3ef60405160405180910390a461215260008383611cf2565b5050565b6000808273ffffffffffffffffffffffffffffffffffffffff163b119050919050565b82805461218590612a94565b90600052602060002090601f0160209004810192826121a757600085556121ee565b82601f106121c057805160ff19168380011785556121ee565b828001600101855582156121ee579182015b828111156121ed5782518255916020019190600101906121d2565b5b5090506121fb91906121ff565b5090565b5b80821115612218576000816000905550600101612200565b5090565b6000604051905090565b600080fd5b600080fd5b60007fffffffff0000000000000000000000000000000000000000000000000000000082169050919050565b61226581612230565b811461227057600080fd5b50565b6000813590506122828161225c565b92915050565b60006020828403121561229e5761229d612226565b5b60006122ac84828501612273565b91505092915050565b60008115159050919050565b6122ca816122b5565b82525050565b60006020820190506122e560008301846122c1565b92915050565b600081519050919050565b600082825260208201905092915050565b60005b8381101561232557808201518184015260208101905061230a565b83811115612334576000848401525b50505050565b6000601f19601f8301169050919050565b6000612356826122eb565b61236081856122f6565b9350612370818560208601612307565b6123798161233a565b840191505092915050565b6000602082019050818103600083015261239e818461234b565b905092915050565b6000819050919050565b6123b9816123a6565b81146123c457600080fd5b50565b6000813590506123d6816123b0565b92915050565b6000602082840312156123f2576123f1612226565b5b6000612400848285016123c7565b91505092915050565b600073ffffffffffffffffffffffffffffffffffffffff82169050919050565b600061243482612409565b9050919050565b61244481612429565b82525050565b600060208201905061245f600083018461243b565b92915050565b61246e81612429565b811461247957600080fd5b50565b60008135905061248b81612465565b92915050565b600080604083850312156124a8576124a7612226565b5b60006124b68582860161247c565b92505060206124c7858286016123c7565b9150509250929050565b6000806000606084860312156124ea576124e9612226565b5b60006124f88682870161247c565b93505060206125098682870161247c565b925050604061251a868287016123c7565b9150509250925092565b600080fd5b600080fd5b7f4e487b7100000000000000000000000000000000000000000000000000000000600052604160045260246000fd5b6125668261233a565b810181811067ffffffffffffffff821117156125855761258461252e565b5b80604052505050565b600061259861221c565b90506125a4828261255d565b919050565b600067ffffffffffffffff8211156125c4576125c361252e565b5b6125cd8261233a565b9050602081019050919050565b82818337600083830152505050565b60006125fc6125f7846125a9565b61258e565b90508281526020810184848401111561261857612617612529565b5b6126238482856125da565b509392505050565b600082601f8301126126405761263f612524565b5b81356126508482602086016125e9565b91505092915050565b6000806000806080858703121561267357612672612226565b5b60006126818782880161247c565b945050602085013567ffffffffffffffff8111156126a2576126a161222b565b5b6126ae8782880161262b565b935050604085013567ffffffffffffffff8111156126cf576126ce61222b565b5b6126db8782880161262b565b925050606085013567ffffffffffffffff8111156126fc576126fb61222b565b5b6127088782880161262b565b91505092959194509250565b60006020828403121561272a57612729612226565b5b60006127388482850161247c565b91505092915050565b61274a816123a6565b82525050565b60006020820190506127656000830184612741565b92915050565b60008060006060848603121561278457612783612226565b5b6000612792868287016123c7565b935050602084013567ffffffffffffffff8111156127b3576127b261222b565b5b6127bf8682870161262b565b925050604084013567ffffffffffffffff8111156127e0576127df61222b565b5b6127ec8682870161262b565b9150509250925092565b6127ff816122b5565b811461280a57600080fd5b50565b60008135905061281c816127f6565b92915050565b6000806040838503121561283957612838612226565b5b60006128478582860161247c565b92505060206128588582860161280d565b9150509250929050565b600067ffffffffffffffff82111561287d5761287c61252e565b5b6128868261233a565b9050602081019050919050565b60006128a66128a184612862565b61258e565b9050828152602081018484840111156128c2576128c1612529565b5b6128cd8482856125da565b509392505050565b600082601f8301126128ea576128e9612524565b5b81356128fa848260208601612893565b91505092915050565b6000806000806080858703121561291d5761291c612226565b5b600061292b8782880161247c565b945050602061293c8782880161247c565b935050604061294d878288016123c7565b925050606085013567ffffffffffffffff81111561296e5761296d61222b565b5b61297a878288016128d5565b91505092959194509250565b600080600080608085870312156129a05761299f612226565b5b60006129ae8782880161247c565b94505060206129bf878288016123c7565b935050604085013567ffffffffffffffff8111156129e0576129df61222b565b5b6129ec8782880161262b565b925050606085013567ffffffffffffffff811115612a0d57612a0c61222b565b5b612a198782880161262b565b91505092959194509250565b60008060408385031215612a3c57612a3b612226565b5b6000612a4a8582860161247c565b9250506020612a5b8582860161247c565b9150509250929050565b7f4e487b7100000000000000000000000000000000000000000000000000000000600052602260045260246000fd5b60006002820490506001821680612aac57607f821691505b60208210811415612ac057612abf612a65565b5b50919050565b7f4552433732313a20617070726f76616c20746f2063757272656e74206f776e6560008201527f7200000000000000000000000000000000000000000000000000000000000000602082015250565b6000612b226021836122f6565b9150612b2d82612ac6565b604082019050919050565b60006020820190508181036000830152612b5181612b15565b9050919050565b7f4552433732313a20617070726f76652063616c6c6572206973206e6f7420746f60008201527f6b656e206f776e6572206e6f7220617070726f76656420666f7220616c6c0000602082015250565b6000612bb4603e836122f6565b9150612bbf82612b58565b604082019050919050565b60006020820190508181036000830152612be381612ba7565b9050919050565b7f4552433732313a2063616c6c6572206973206e6f7420746f6b656e206f776e6560008201527f72206e6f7220617070726f766564000000000000000000000000000000000000602082015250565b6000612c46602e836122f6565b9150612c5182612bea565b604082019050919050565b60006020820190508181036000830152612c7581612c39565b9050919050565b7f506c656173652070726f76696465207468652073766720626173653634207172600082015250565b6000612cb26020836122f6565b9150612cbd82612c7c565b602082019050919050565b60006020820190508181036000830152612ce181612ca5565b9050919050565b7f496e206f7264657220746f2067657420796f7572204e465420796f752068617660008201527f6520746f20626520612075736572206f662074686520636f6e74726163740000602082015250565b6000612d44603e836122f6565b9150612d4f82612ce8565b604082019050919050565b60006020820190508181036000830152612d7381612d37565b9050919050565b7f4552433732313a20696e76616c696420746f6b656e2049440000000000000000600082015250565b6000612db06018836122f6565b9150612dbb82612d7a565b602082019050919050565b60006020820190508181036000830152612ddf81612da3565b9050919050565b7f4552433732313a2061646472657373207a65726f206973206e6f74206120766160008201527f6c6964206f776e65720000000000000000000000000000000000000000000000602082015250565b6000612e426029836122f6565b9150612e4d82612de6565b604082019050919050565b60006020820190508181036000830152612e7181612e35565b9050919050565b600081905092915050565b7f7b226e616d65223a20224d65646963616c205265636f72642023000000000000600082015250565b6000612eb9601a83612e78565b9150612ec482612e83565b601a82019050919050565b6000612eda826122eb565b612ee48185612e78565b9350612ef4818560208601612307565b80840191505092915050565b7f222c000000000000000000000000000000000000000000000000000000000000600082015250565b6000612f36600283612e78565b9150612f4182612f00565b600282019050919050565b7f226465736372697074696f6e223a202253656520796f7572206d65646961636160008201527f6c207265636f726420696e20746869732075726c3a2000000000000000000000602082015250565b6000612fa8603683612e78565b9150612fb382612f4c565b603682019050919050565b7f22696d616765223a202200000000000000000000000000000000000000000000600082015250565b6000612ff4600a83612e78565b9150612fff82612fbe565b600a82019050919050565b7f2200000000000000000000000000000000000000000000000000000000000000600082015250565b6000613040600183612e78565b915061304b8261300a565b600182019050919050565b7f7d00000000000000000000000000000000000000000000000000000000000000600082015250565b600061308c600183612e78565b915061309782613056565b600182019050919050565b60006130ad82612eac565b91506130b98286612ecf565b91506130c482612f29565b91506130cf82612f9b565b91506130db8285612ecf565b91506130e682612f29565b91506130f182612fe7565b91506130fd8284612ecf565b915061310882613033565b91506131138261307f565b9150819050949350505050565b7f646174613a6170706c69636174696f6e2f6a736f6e3b6261736536342c000000600082015250565b6000613156601d83612e78565b915061316182613120565b601d82019050919050565b600061317782613149565b91506131838284612ecf565b915081905092915050565b600061319a8285612ecf565b91506131a68284612ecf565b91508190509392505050565b7f506c656173652075736520616e206578697374696e6720546f6b656e00000000600082015250565b60006131e8601c836122f6565b91506131f3826131b2565b602082019050919050565b60006020820190508181036000830152613217816131db565b9050919050565b7f596f75206d757374206f776e207468697320746f6b656e000000000000000000600082015250565b60006132546017836122f6565b915061325f8261321e565b602082019050919050565b6000602082019050818103600083015261328381613247565b9050919050565b7f4f776e61626c653a206e6577206f776e657220697320746865207a65726f206160008201527f6464726573730000000000000000000000000000000000000000000000000000602082015250565b60006132e66026836122f6565b91506132f18261328a565b604082019050919050565b60006020820190508181036000830152613315816132d9565b9050919050565b7f4552433732313a207472616e736665722066726f6d20696e636f72726563742060008201527f6f776e6572000000000000000000000000000000000000000000000000000000602082015250565b60006133786025836122f6565b91506133838261331c565b604082019050919050565b600060208201905081810360008301526133a78161336b565b9050919050565b7f4552433732313a207472616e7366657220746f20746865207a65726f2061646460008201527f7265737300000000000000000000000000000000000000000000000000000000602082015250565b600061340a6024836122f6565b9150613415826133ae565b604082019050919050565b60006020820190508181036000830152613439816133fd565b9050919050565b7f4e487b7100000000000000000000000000000000000000000000000000000000600052601160045260246000fd5b600061347a826123a6565b9150613485836123a6565b92508282101561349857613497613440565b5b828203905092915050565b60006134ae826123a6565b91506134b9836123a6565b9250827fffffffffffffffffffffffffffffffffffffffffffffffffffffffffffffffff038211156134ee576134ed613440565b5b828201905092915050565b7f4f776e61626c653a2063616c6c6572206973206e6f7420746865206f776e6572600082015250565b600061352f6020836122f6565b915061353a826134f9565b602082019050919050565b6000602082019050818103600083015261355e81613522565b9050919050565b7f45524337323155524953746f726167653a2055524920736574206f66206e6f6e60008201527f6578697374656e7420746f6b656e000000000000000000000000000000000000602082015250565b60006135c1602e836122f6565b91506135cc82613565565b604082019050919050565b600060208201905081810360008301526135f0816135b4565b9050919050565b6000613602826123a6565b91507fffffffffffffffffffffffffffffffffffffffffffffffffffffffffffffffff82141561363557613634613440565b5b600182019050919050565b7f4e487b7100000000000000000000000000000000000000000000000000000000600052601260045260246000fd5b600061367a826123a6565b9150613685836123a6565b92508261369557613694613640565b5b828204905092915050565b60006136ab826123a6565b91506136b6836123a6565b9250826136c6576136c5613640565b5b828206905092915050565b7f4e487b7100000000000000000000000000000000000000000000000000000000600052603260045260246000fd5b600061370b826123a6565b9150613716836123a6565b9250817fffffffffffffffffffffffffffffffffffffffffffffffffffffffffffffffff048311821515161561374f5761374e613440565b5b828202905092915050565b7f4552433732313a20617070726f766520746f2063616c6c657200000000000000600082015250565b60006137906019836122f6565b915061379b8261375a565b602082019050919050565b600060208201905081810360008301526137bf81613783565b9050919050565b7f4552433732313a207472616e7366657220746f206e6f6e20455243373231526560008201527f63656976657220696d706c656d656e7465720000000000000000000000000000602082015250565b60006138226032836122f6565b915061382d826137c6565b604082019050919050565b6000602082019050818103600083015261385181613815565b9050919050565b7f5061757361626c653a206e6f7420706175736564000000000000000000000000600082015250565b600061388e6014836122f6565b915061389982613858565b602082019050919050565b600060208201905081810360008301526138bd81613881565b9050919050565b7f5061757361626c653a2070617573656400000000000000000000000000000000600082015250565b60006138fa6010836122f6565b9150613905826138c4565b602082019050919050565b60006020820190508181036000830152613929816138ed565b9050919050565b600081519050919050565b600082825260208201905092915050565b600061395782613930565b613961818561393b565b9350613971818560208601612307565b61397a8161233a565b840191505092915050565b600060808201905061399a600083018761243b565b6139a7602083018661243b565b6139b46040830185612741565b81810360608301526139c6818461394c565b905095945050505050565b6000815190506139e08161225c565b92915050565b6000602082840312156139fc576139fb612226565b5b6000613a0a848285016139d1565b91505092915050565b7f4552433732313a206d696e7420746f20746865207a65726f2061646472657373600082015250565b6000613a496020836122f6565b9150613a5482613a13565b602082019050919050565b60006020820190508181036000830152613a7881613a3c565b9050919050565b7f4552433732313a20746f6b656e20616c7265616479206d696e74656400000000600082015250565b6000613ab5601c836122f6565b9150613ac082613a7f565b602082019050919050565b60006020820190508181036000830152613ae481613aa8565b905091905056fe4142434445464748494a4b4c4d4e4f505152535455565758595a6162636465666768696a6b6c6d6e6f707172737475767778797a303132333435363738392b2fa2646970667358221220b10a80510f09fe15fdf24dda30b184ce9220fd5a2b478b346f53d28fdf4de9ea64736f6c63430008090033",
  "linkReferences": {},
  "deployedLinkReferences": {}
}